{
  "contractName": "Token",
  "abi": [
    {
      "inputs": [],
      "stateMutability": "nonpayable",
      "type": "constructor"
    },
    {
      "anonymous": false,
      "inputs": [
        {
          "indexed": true,
          "internalType": "address",
          "name": "owner",
          "type": "address"
        },
        {
          "indexed": true,
          "internalType": "address",
          "name": "spender",
          "type": "address"
        },
        {
          "indexed": false,
          "internalType": "uint256",
          "name": "value",
          "type": "uint256"
        }
      ],
      "name": "Approval",
      "type": "event"
    },
    {
      "anonymous": false,
      "inputs": [
        {
          "indexed": true,
          "internalType": "address",
          "name": "from",
          "type": "address"
        },
        {
          "indexed": true,
          "internalType": "address",
          "name": "to",
          "type": "address"
        },
        {
          "indexed": false,
          "internalType": "uint256",
          "name": "value",
          "type": "uint256"
        }
      ],
      "name": "Transfer",
      "type": "event"
    },
    {
      "inputs": [
        {
          "internalType": "address",
          "name": "",
          "type": "address"
        },
        {
          "internalType": "address",
          "name": "",
          "type": "address"
        }
      ],
      "name": "allowance",
      "outputs": [
        {
          "internalType": "uint256",
          "name": "",
          "type": "uint256"
        }
      ],
      "stateMutability": "view",
      "type": "function",
      "constant": true
    },
    {
      "inputs": [
        {
          "internalType": "address",
          "name": "",
          "type": "address"
        }
      ],
      "name": "balanceOf",
      "outputs": [
        {
          "internalType": "uint256",
          "name": "",
          "type": "uint256"
        }
      ],
      "stateMutability": "view",
      "type": "function",
      "constant": true
    },
    {
      "inputs": [],
      "name": "decimal",
      "outputs": [
        {
          "internalType": "uint256",
          "name": "",
          "type": "uint256"
        }
      ],
      "stateMutability": "view",
      "type": "function",
      "constant": true
    },
    {
      "inputs": [],
      "name": "name",
      "outputs": [
        {
          "internalType": "string",
          "name": "",
          "type": "string"
        }
      ],
      "stateMutability": "view",
      "type": "function",
      "constant": true
    },
    {
      "inputs": [],
      "name": "symbol",
      "outputs": [
        {
          "internalType": "string",
          "name": "",
          "type": "string"
        }
      ],
      "stateMutability": "view",
      "type": "function",
      "constant": true
    },
    {
      "inputs": [],
      "name": "totalSupply",
      "outputs": [
        {
          "internalType": "uint256",
          "name": "",
          "type": "uint256"
        }
      ],
      "stateMutability": "view",
      "type": "function",
      "constant": true
    },
    {
      "inputs": [
        {
          "internalType": "address",
          "name": "_to",
          "type": "address"
        },
        {
          "internalType": "uint256",
          "name": "_value",
          "type": "uint256"
        }
      ],
      "name": "transfer",
      "outputs": [
        {
          "internalType": "bool",
          "name": "success",
          "type": "bool"
        }
      ],
      "stateMutability": "nonpayable",
      "type": "function"
    },
    {
      "inputs": [
        {
          "internalType": "address",
          "name": "_spender",
          "type": "address"
        },
        {
          "internalType": "uint256",
          "name": "_value",
          "type": "uint256"
        }
      ],
      "name": "approve",
      "outputs": [
        {
          "internalType": "bool",
          "name": "success",
          "type": "bool"
        }
      ],
      "stateMutability": "nonpayable",
      "type": "function"
    },
    {
      "inputs": [
        {
          "internalType": "address",
          "name": "_from",
          "type": "address"
        },
        {
          "internalType": "address",
          "name": "_to",
          "type": "address"
        },
        {
          "internalType": "uint256",
          "name": "_value",
          "type": "uint256"
        }
      ],
      "name": "transferFrom",
      "outputs": [
        {
          "internalType": "bool",
          "name": "success",
          "type": "bool"
        }
      ],
      "stateMutability": "nonpayable",
      "type": "function"
    }
  ],
  "bytecode": "0x60806040526040518060400160405280600881526020017f494e44746f6b656e000000000000000000000000000000000000000000000000815250600090816200004a91906200038f565b506040518060400160405280600381526020017f494e440000000000000000000000000000000000000000000000000000000000815250600190816200009191906200038f565b506012600255600254600a620000a89190620005f9565b620f4240620000b891906200064a565b600355348015620000c857600080fd5b50600354600460003373ffffffffffffffffffffffffffffffffffffffff1673ffffffffffffffffffffffffffffffffffffffff1681526020019081526020016000208190555062000695565b600081519050919050565b7f4e487b7100000000000000000000000000000000000000000000000000000000600052604160045260246000fd5b7f4e487b7100000000000000000000000000000000000000000000000000000000600052602260045260246000fd5b600060028204905060018216806200019757607f821691505b602082108103620001ad57620001ac6200014f565b5b50919050565b60008190508160005260206000209050919050565b60006020601f8301049050919050565b600082821b905092915050565b600060088302620002177fffffffffffffffffffffffffffffffffffffffffffffffffffffffffffffffff82620001d8565b620002238683620001d8565b95508019841693508086168417925050509392505050565b6000819050919050565b6000819050919050565b6000620002706200026a62000264846200023b565b62000245565b6200023b565b9050919050565b6000819050919050565b6200028c836200024f565b620002a46200029b8262000277565b848454620001e5565b825550505050565b600090565b620002bb620002ac565b620002c881848462000281565b505050565b5b81811015620002f057620002e4600082620002b1565b600181019050620002ce565b5050565b601f8211156200033f576200030981620001b3565b6200031484620001c8565b8101602085101562000324578190505b6200033c6200033385620001c8565b830182620002cd565b50505b505050565b600082821c905092915050565b6000620003646000198460080262000344565b1980831691505092915050565b60006200037f838362000351565b9150826002028217905092915050565b6200039a8262000115565b67ffffffffffffffff811115620003b657620003b562000120565b5b620003c282546200017e565b620003cf828285620002f4565b600060209050601f831160018114620004075760008415620003f2578287015190505b620003fe858262000371565b8655506200046e565b601f1984166200041786620001b3565b60005b8281101562000441578489015182556001820191506020850194506020810190506200041a565b868310156200046157848901516200045d601f89168262000351565b8355505b6001600288020188555050505b505050505050565b7f4e487b7100000000000000000000000000000000000000000000000000000000600052601160045260246000fd5b60008160011c9050919050565b6000808291508390505b60018511156200050457808604811115620004dc57620004db62000476565b5b6001851615620004ec5780820291505b8081029050620004fc85620004a5565b9450620004bc565b94509492505050565b6000826200051f5760019050620005f2565b816200052f5760009050620005f2565b8160018114620005485760028114620005535762000589565b6001915050620005f2565b60ff84111562000568576200056762000476565b5b8360020a91508482111562000582576200058162000476565b5b50620005f2565b5060208310610133831016604e8410600b8410161715620005c35782820a905083811115620005bd57620005bc62000476565b5b620005f2565b620005d28484846001620004b2565b92509050818404811115620005ec57620005eb62000476565b5b81810290505b9392505050565b600062000606826200023b565b915062000613836200023b565b9250620006427fffffffffffffffffffffffffffffffffffffffffffffffffffffffffffffffff84846200050d565b905092915050565b600062000657826200023b565b915062000664836200023b565b925082820262000674816200023b565b915082820484148315176200068e576200068d62000476565b5b5092915050565b610cbf80620006a56000396000f3fe608060405234801561001057600080fd5b50600436106100935760003560e01c806370a082311161006657806370a082311461013457806376809ce31461016457806395d89b4114610182578063a9059cbb146101a0578063dd62ed3e146101d057610093565b806306fdde0314610098578063095ea7b3146100b657806318160ddd146100e657806323b872dd14610104575b600080fd5b6100a0610200565b6040516100ad9190610977565b60405180910390f35b6100d060048036038101906100cb9190610a32565b61028e565b6040516100dd9190610a8d565b60405180910390f35b6100ee6103b8565b6040516100fb9190610ab7565b60405180910390f35b61011e60048036038101906101199190610ad2565b6103be565b60405161012b9190610a8d565b60405180910390f35b61014e60048036038101906101499190610b25565b6105ba565b60405161015b9190610ab7565b60405180910390f35b61016c6105d2565b6040516101799190610ab7565b60405180910390f35b61018a6105d8565b6040516101979190610977565b60405180910390f35b6101ba60048036038101906101b59190610a32565b610666565b6040516101c79190610a8d565b60405180910390f35b6101ea60048036038101906101e59190610b52565b6106c9565b6040516101f79190610ab7565b60405180910390f35b6000805461020d90610bc1565b80601f016020809104026020016040519081016040528092919081815260200182805461023990610bc1565b80156102865780601f1061025b57610100808354040283529160200191610286565b820191906000526020600020905b81548152906001019060200180831161026957829003601f168201915b505050505081565b60008073ffffffffffffffffffffffffffffffffffffffff168373ffffffffffffffffffffffffffffffffffffffff16036102c857600080fd5b81600560003373ffffffffffffffffffffffffffffffffffffffff1673ffffffffffffffffffffffffffffffffffffffff16815260200190815260200160002060008573ffffffffffffffffffffffffffffffffffffffff1673ffffffffffffffffffffffffffffffffffffffff168152602001908152602001600020819055508273ffffffffffffffffffffffffffffffffffffffff163373ffffffffffffffffffffffffffffffffffffffff167f8c5be1e5ebec7d5bd14f71427d1e84f3dd0314c0f7b2291e5b200ac8c7c3b925846040516103a69190610ab7565b60405180910390a36001905092915050565b60035481565b6000600460008573ffffffffffffffffffffffffffffffffffffffff1673ffffffffffffffffffffffffffffffffffffffff1681526020019081526020016000205482111561040c57600080fd5b600560008573ffffffffffffffffffffffffffffffffffffffff1673ffffffffffffffffffffffffffffffffffffffff16815260200190815260200160002060003373ffffffffffffffffffffffffffffffffffffffff1673ffffffffffffffffffffffffffffffffffffffff1681526020019081526020016000205482111561049557600080fd5b61052482600560008773ffffffffffffffffffffffffffffffffffffffff1673ffffffffffffffffffffffffffffffffffffffff16815260200190815260200160002060003373ffffffffffffffffffffffffffffffffffffffff1673ffffffffffffffffffffffffffffffffffffffff168152602001908152602001600020546106ee90919063ffffffff16565b600560008673ffffffffffffffffffffffffffffffffffffffff1673ffffffffffffffffffffffffffffffffffffffff16815260200190815260200160002060003373ffffffffffffffffffffffffffffffffffffffff1673ffffffffffffffffffffffffffffffffffffffff168152602001908152602001600020819055506105af848484610704565b600190509392505050565b60046020528060005260406000206000915090505481565b60025481565b600180546105e590610bc1565b80601f016020809104026020016040519081016040528092919081815260200182805461061190610bc1565b801561065e5780601f106106335761010080835404028352916020019161065e565b820191906000526020600020905b81548152906001019060200180831161064157829003601f168201915b505050505081565b600081600460003373ffffffffffffffffffffffffffffffffffffffff1673ffffffffffffffffffffffffffffffffffffffff1681526020019081526020016000205410156106b457600080fd5b6106bf338484610704565b6001905092915050565b6005602052816000526040600020602052806000526040600020600091509150505481565b600081836106fc9190610c21565b905092915050565b600073ffffffffffffffffffffffffffffffffffffffff168273ffffffffffffffffffffffffffffffffffffffff160361073d57600080fd5b61078f81600460008673ffffffffffffffffffffffffffffffffffffffff1673ffffffffffffffffffffffffffffffffffffffff168152602001908152602001600020546106ee90919063ffffffff16565b600460008573ffffffffffffffffffffffffffffffffffffffff1673ffffffffffffffffffffffffffffffffffffffff1681526020019081526020016000208190555061082481600460008573ffffffffffffffffffffffffffffffffffffffff1673ffffffffffffffffffffffffffffffffffffffff168152602001908152602001600020546108d190919063ffffffff16565b600460008473ffffffffffffffffffffffffffffffffffffffff1673ffffffffffffffffffffffffffffffffffffffff168152602001908152602001600020819055508173ffffffffffffffffffffffffffffffffffffffff168373ffffffffffffffffffffffffffffffffffffffff167fddf252ad1be2c89b69c2b068fc378daa952ba7f163c4a11628f55a4df523b3ef836040516108c49190610ab7565b60405180910390a3505050565b600081836108df9190610c55565b905092915050565b600081519050919050565b600082825260208201905092915050565b60005b83811015610921578082015181840152602081019050610906565b60008484015250505050565b6000601f19601f8301169050919050565b6000610949826108e7565b61095381856108f2565b9350610963818560208601610903565b61096c8161092d565b840191505092915050565b60006020820190508181036000830152610991818461093e565b905092915050565b600080fd5b600073ffffffffffffffffffffffffffffffffffffffff82169050919050565b60006109c98261099e565b9050919050565b6109d9816109be565b81146109e457600080fd5b50565b6000813590506109f6816109d0565b92915050565b6000819050919050565b610a0f816109fc565b8114610a1a57600080fd5b50565b600081359050610a2c81610a06565b92915050565b60008060408385031215610a4957610a48610999565b5b6000610a57858286016109e7565b9250506020610a6885828601610a1d565b9150509250929050565b60008115159050919050565b610a8781610a72565b82525050565b6000602082019050610aa26000830184610a7e565b92915050565b610ab1816109fc565b82525050565b6000602082019050610acc6000830184610aa8565b92915050565b600080600060608486031215610aeb57610aea610999565b5b6000610af9868287016109e7565b9350506020610b0a868287016109e7565b9250506040610b1b86828701610a1d565b9150509250925092565b600060208284031215610b3b57610b3a610999565b5b6000610b49848285016109e7565b91505092915050565b60008060408385031215610b6957610b68610999565b5b6000610b77858286016109e7565b9250506020610b88858286016109e7565b9150509250929050565b7f4e487b7100000000000000000000000000000000000000000000000000000000600052602260045260246000fd5b60006002820490506001821680610bd957607f821691505b602082108103610bec57610beb610b92565b5b50919050565b7f4e487b7100000000000000000000000000000000000000000000000000000000600052601160045260246000fd5b6000610c2c826109fc565b9150610c37836109fc565b9250828203905081811115610c4f57610c4e610bf2565b5b92915050565b6000610c60826109fc565b9150610c6b836109fc565b9250828201905080821115610c8357610c82610bf2565b5b9291505056fea264697066735822122076dc9fd5f519d4f2b48ece256b47f35d2c47d540454c24bb7dc694b3325d8e7364736f6c63430008110033",
  "immutableReferences": {},
  "source": "pragma solidity ^0.8.0;\r\n//import \"openzeppelin-solidity/contracts/math/SafeMath.sol\";\r\nlibrary SafeMath {\r\n    /**\r\n     * @dev Returns the addition of two unsigned integers, with an overflow flag.\r\n     *\r\n     * _Available since v3.4._\r\n     */\r\n    function tryAdd(uint256 a, uint256 b) internal pure returns (bool, uint256) {\r\n        unchecked {\r\n            uint256 c = a + b;\r\n            if (c < a) return (false, 0);\r\n            return (true, c);\r\n        }\r\n    }\r\n\r\n    /**\r\n     * @dev Returns the subtraction of two unsigned integers, with an overflow flag.\r\n     *\r\n     * _Available since v3.4._\r\n     */\r\n    function trySub(uint256 a, uint256 b) internal pure returns (bool, uint256) {\r\n        unchecked {\r\n            if (b > a) return (false, 0);\r\n            return (true, a - b);\r\n        }\r\n    }\r\n\r\n    /**\r\n     * @dev Returns the multiplication of two unsigned integers, with an overflow flag.\r\n     *\r\n     * _Available since v3.4._\r\n     */\r\n    function tryMul(uint256 a, uint256 b) internal pure returns (bool, uint256) {\r\n        unchecked {\r\n            // Gas optimization: this is cheaper than requiring 'a' not being zero, but the\r\n            // benefit is lost if 'b' is also tested.\r\n            // See: https://github.com/OpenZeppelin/openzeppelin-contracts/pull/522\r\n            if (a == 0) return (true, 0);\r\n            uint256 c = a * b;\r\n            if (c / a != b) return (false, 0);\r\n            return (true, c);\r\n        }\r\n    }\r\n\r\n    /**\r\n     * @dev Returns the division of two unsigned integers, with a division by zero flag.\r\n     *\r\n     * _Available since v3.4._\r\n     */\r\n    function tryDiv(uint256 a, uint256 b) internal pure returns (bool, uint256) {\r\n        unchecked {\r\n            if (b == 0) return (false, 0);\r\n            return (true, a / b);\r\n        }\r\n    }\r\n\r\n    /**\r\n     * @dev Returns the remainder of dividing two unsigned integers, with a division by zero flag.\r\n     *\r\n     * _Available since v3.4._\r\n     */\r\n    function tryMod(uint256 a, uint256 b) internal pure returns (bool, uint256) {\r\n        unchecked {\r\n            if (b == 0) return (false, 0);\r\n            return (true, a % b);\r\n        }\r\n    }\r\n\r\n    /**\r\n     * @dev Returns the addition of two unsigned integers, reverting on\r\n     * overflow.\r\n     *\r\n     * Counterpart to Solidity's `+` operator.\r\n     *\r\n     * Requirements:\r\n     *\r\n     * - Addition cannot overflow.\r\n     */\r\n    function add(uint256 a, uint256 b) internal pure returns (uint256) {\r\n        return a + b;\r\n    }\r\n\r\n    /**\r\n     * @dev Returns the subtraction of two unsigned integers, reverting on\r\n     * overflow (when the result is negative).\r\n     *\r\n     * Counterpart to Solidity's `-` operator.\r\n     *\r\n     * Requirements:\r\n     *\r\n     * - Subtraction cannot overflow.\r\n     */\r\n    function sub(uint256 a, uint256 b) internal pure returns (uint256) {\r\n        return a - b;\r\n    }\r\n\r\n    /**\r\n     * @dev Returns the multiplication of two unsigned integers, reverting on\r\n     * overflow.\r\n     *\r\n     * Counterpart to Solidity's `*` operator.\r\n     *\r\n     * Requirements:\r\n     *\r\n     * - Multiplication cannot overflow.\r\n     */\r\n    function mul(uint256 a, uint256 b) internal pure returns (uint256) {\r\n        return a * b;\r\n    }\r\n\r\n    /**\r\n     * @dev Returns the integer division of two unsigned integers, reverting on\r\n     * division by zero. The result is rounded towards zero.\r\n     *\r\n     * Counterpart to Solidity's `/` operator.\r\n     *\r\n     * Requirements:\r\n     *\r\n     * - The divisor cannot be zero.\r\n     */\r\n    function div(uint256 a, uint256 b) internal pure returns (uint256) {\r\n        return a / b;\r\n    }\r\n\r\n    /**\r\n     * @dev Returns the remainder of dividing two unsigned integers. (unsigned integer modulo),\r\n     * reverting when dividing by zero.\r\n     *\r\n     * Counterpart to Solidity's `%` operator. This function uses a `revert`\r\n     * opcode (which leaves remaining gas untouched) while Solidity uses an\r\n     * invalid opcode to revert (consuming all remaining gas).\r\n     *\r\n     * Requirements:\r\n     *\r\n     * - The divisor cannot be zero.\r\n     */\r\n    function mod(uint256 a, uint256 b) internal pure returns (uint256) {\r\n        return a % b;\r\n    }\r\n\r\n    /**\r\n     * @dev Returns the subtraction of two unsigned integers, reverting with custom message on\r\n     * overflow (when the result is negative).\r\n     *\r\n     * CAUTION: This function is deprecated because it requires allocating memory for the error\r\n     * message unnecessarily. For custom revert reasons use {trySub}.\r\n     *\r\n     * Counterpart to Solidity's `-` operator.\r\n     *\r\n     * Requirements:\r\n     *\r\n     * - Subtraction cannot overflow.\r\n     */\r\n    function sub(\r\n        uint256 a,\r\n        uint256 b,\r\n        string memory errorMessage\r\n    ) internal pure returns (uint256) {\r\n        unchecked {\r\n            require(b <= a, errorMessage);\r\n            return a - b;\r\n        }\r\n    }\r\n\r\n    /**\r\n     * @dev Returns the integer division of two unsigned integers, reverting with custom message on\r\n     * division by zero. The result is rounded towards zero.\r\n     *\r\n     * Counterpart to Solidity's `/` operator. Note: this function uses a\r\n     * `revert` opcode (which leaves remaining gas untouched) while Solidity\r\n     * uses an invalid opcode to revert (consuming all remaining gas).\r\n     *\r\n     * Requirements:\r\n     *\r\n     * - The divisor cannot be zero.\r\n     */\r\n    function div(\r\n        uint256 a,\r\n        uint256 b,\r\n        string memory errorMessage\r\n    ) internal pure returns (uint256) {\r\n        unchecked {\r\n            require(b > 0, errorMessage);\r\n            return a / b;\r\n        }\r\n    }\r\n\r\n    /**\r\n     * @dev Returns the remainder of dividing two unsigned integers. (unsigned integer modulo),\r\n     * reverting with custom message when dividing by zero.\r\n     *\r\n     * CAUTION: This function is deprecated because it requires allocating memory for the error\r\n     * message unnecessarily. For custom revert reasons use {tryMod}.\r\n     *\r\n     * Counterpart to Solidity's `%` operator. This function uses a `revert`\r\n     * opcode (which leaves remaining gas untouched) while Solidity uses an\r\n     * invalid opcode to revert (consuming all remaining gas).\r\n     *\r\n     * Requirements:\r\n     *\r\n     * - The divisor cannot be zero.\r\n     */\r\n    function mod(\r\n        uint256 a,\r\n        uint256 b,\r\n        string memory errorMessage\r\n    ) internal pure returns (uint256) {\r\n        unchecked {\r\n            require(b > 0, errorMessage);\r\n            return a % b;\r\n        }\r\n    }\r\n}\r\ncontract Token{\r\n\tusing SafeMath for uint;\r\n\tstring public name=\"INDtoken\";\r\n\tstring public symbol=\"IND\";\r\n\tuint256 public decimal= 18;\r\n\tuint256 public totalSupply=1000000*(10**decimal);\r\n\tmapping(address=>uint256) public balanceOf;\r\n\tmapping(address=>mapping(address=>uint256)) public allowance;\r\n\r\n\tevent Transfer(address indexed from,address indexed to,uint256 value);\r\n\tevent Approval(address indexed owner,address indexed spender,uint256 value);\r\n\t\tconstructor() public{\r\n\t\t\tbalanceOf[msg.sender]=totalSupply;\r\n\t\t}\r\n\t\tfunction transfer(address _to,uint256 _value) public returns(bool success){\r\n\t\t\trequire(balanceOf[msg.sender]>=_value);\r\n\t\t\t_transfer(msg.sender,_to,_value);\r\n\t\t\treturn true;\r\n\t\t}\r\n\r\n\t\tfunction _transfer(address _from,address _to,uint256 _value) internal {\r\n\t\t\trequire(_to!=address(0));\r\n\t\t\tbalanceOf[_from]=balanceOf[_from].sub(_value);\r\n\t\t\tbalanceOf[_to]=balanceOf[_to].add(_value);\r\n\t\t\temit Transfer(_from,_to,_value);\r\n\t\t}\r\n\r\n\t\tfunction approve(address _spender,uint256 _value) public returns(bool success){\r\n\t\t\trequire(_spender!=address(0));\r\n\t\t\tallowance[msg.sender][_spender]=_value;\r\n\t\t\temit Approval(msg.sender,_spender,_value);\r\n\t\t\treturn true;\r\n\t\t}\r\n\r\n\t\tfunction transferFrom(address _from,address _to,uint256 _value) public returns(bool success){\r\n\t\t\t require(_value<=balanceOf[_from]);\r\n\t\t\t require(_value<=allowance[_from][msg.sender]);\r\n\t\t\t allowance[_from][msg.sender]=allowance[_from][msg.sender].sub(_value);\r\n\t\t\t_transfer(_from,_to,_value);\r\n\t\t\treturn true;\r\n\t\t}\r\n\t}",
  "sourcePath": "D:\\sstudy\\Portfolio\\PortfolioProject\\ethswap\\src\\contracts\\Token.sol",
  "compiler": {
    "name": "solc",
    "version": "0.8.17+commit.8df45f5f.Emscripten.clang"
  },
  "schemaVersion": "3.4.10",
  "updatedAt": "2022-10-03T14:07:42.226Z",
  "networkType": "ethereum",
  "devdoc": {
    "kind": "dev",
    "methods": {},
    "version": 1
  },
  "userdoc": {
    "kind": "user",
    "methods": {},
    "version": 1
  }
}